{
  "contractName": "NRG",
  "abi": [
    {
      "inputs": [],
      "name": "PowerGeneration",
      "outputs": [],
      "stateMutability": "nonpayable",
      "type": "function"
    },
    {
      "inputs": [
        {
          "internalType": "address",
          "name": "addr",
          "type": "address"
        },
        {
          "internalType": "string",
          "name": "_name",
          "type": "string"
        },
        {
          "internalType": "string",
          "name": "_useraddr",
          "type": "string"
        },
        {
          "internalType": "bool",
          "name": "_generaterights",
          "type": "bool"
        },
        {
          "internalType": "bool",
          "name": "_userights",
          "type": "bool"
        }
      ],
      "name": "empower",
      "outputs": [],
      "stateMutability": "nonpayable",
      "type": "function"
    },
    {
      "inputs": [
        {
          "internalType": "uint256",
          "name": "power",
          "type": "uint256"
        },
        {
          "internalType": "uint256",
          "name": "volume",
          "type": "uint256"
        }
      ],
      "name": "calPrice",
      "outputs": [
        {
          "internalType": "uint256",
          "name": "c",
          "type": "uint256"
        }
      ],
      "stateMutability": "pure",
      "type": "function",
      "constant": true
    },
    {
      "inputs": [
        {
          "internalType": "uint256",
          "name": "_value",
          "type": "uint256"
        }
      ],
      "name": "minepower",
      "outputs": [],
      "stateMutability": "nonpayable",
      "type": "function"
    },
    {
      "inputs": [
        {
          "internalType": "address",
          "name": "_to",
          "type": "address"
        },
        {
          "internalType": "uint256",
          "name": "_value",
          "type": "uint256"
        }
      ],
      "name": "transfer",
      "outputs": [],
      "stateMutability": "nonpayable",
      "type": "function"
    },
    {
      "inputs": [
        {
          "internalType": "uint256",
          "name": "_value",
          "type": "uint256"
        }
      ],
      "name": "powerConsume",
      "outputs": [],
      "stateMutability": "nonpayable",
      "type": "function"
    },
    {
      "inputs": [
        {
          "internalType": "address",
          "name": "addr",
          "type": "address"
        },
        {
          "internalType": "string",
          "name": "_info",
          "type": "string"
        }
      ],
      "name": "PowerDispatch",
      "outputs": [],
      "stateMutability": "nonpayable",
      "type": "function"
    },
    {
      "inputs": [],
      "name": "GetUsedOfSelf",
      "outputs": [
        {
          "internalType": "uint256",
          "name": "_value",
          "type": "uint256"
        }
      ],
      "stateMutability": "view",
      "type": "function",
      "constant": true
    },
    {
      "inputs": [
        {
          "internalType": "address",
          "name": "addr",
          "type": "address"
        }
      ],
      "name": "GetTotalUsedOfSomeone",
      "outputs": [
        {
          "internalType": "uint256",
          "name": "_value",
          "type": "uint256"
        }
      ],
      "stateMutability": "view",
      "type": "function",
      "constant": true
    },
    {
      "inputs": [],
      "name": "GetGeneration",
      "outputs": [
        {
          "internalType": "int256",
          "name": "_value",
          "type": "int256"
        }
      ],
      "stateMutability": "view",
      "type": "function",
      "constant": true
    },
    {
      "inputs": [
        {
          "internalType": "address",
          "name": "addr",
          "type": "address"
        }
      ],
      "name": "GetTotalGeneration",
      "outputs": [
        {
          "internalType": "uint256",
          "name": "_value",
          "type": "uint256"
        }
      ],
      "stateMutability": "view",
      "type": "function",
      "constant": true
    },
    {
      "inputs": [],
      "name": "Getinfomation",
      "outputs": [
        {
          "internalType": "string",
          "name": "_info",
          "type": "string"
        }
      ],
      "stateMutability": "view",
      "type": "function",
      "constant": true
    }
  ],
  "bytecode": "0x608060405234801561001057600080fd5b50610a8b806100206000396000f3fe608060405234801561001057600080fd5b50600436106100b45760003560e01c8063825449f011610071578063825449f014610142578063a858da2d1461015a578063a9059cbb1461016d578063b4b8a50414610180578063b617e9dd14610193578063b9e62b70146101aa57600080fd5b8063241309ff146100b957806337117c7b146100ce5780633bb46a61146100f4578063515db5fb1461010757806355999ad81461011c57806367fec6d41461012f575b600080fd5b6100cc6100c736600461077e565b6101c2565b005b6100e16100dc366004610814565b6102b5565b6040519081526020015b60405180910390f35b6100e1610102366004610836565b6102c8565b61010f610314565b6040516100eb9190610851565b6100cc61012a3660046108a6565b6103b8565b6100cc61013d3660046108bf565b610426565b336000908152600160205260409020600401546100e1565b6100cc6101683660046108a6565b610471565b6100cc61017b36600461090d565b6104fd565b6100e161018e366004610836565b6105d4565b6100cc600080546001600160a01b03191633179055565b336000908152600160205260409020600201546100e1565b6000546001600160a01b031633146101d957600080fd5b6001600160a01b038516600090815260016020908152604090912085516102029287019061061b565b506001600160a01b038516600090815260016020818152604090922085516102329391909201919086019061061b565b506001600160a01b03851660008181526001602081815260408084206002810185905560038101859055600481018590556005810185905560068101805461ffff191689151561ff00191617610100891515021790558151808401928390528581529590945291905291516102ad926007909201919061061b565b505050505050565b60006102c1828461094d565b9392505050565b6000336001600160a01b03831614806102eb57506000546001600160a01b031633145b1561030f57506001600160a01b031660009081526001602052604090206005015490565b919050565b3360009081526001602052604090206007018054606091906103359061096c565b80601f01602080910402602001604051908101604052809291908181526020018280546103619061096c565b80156103ae5780601f10610383576101008083540402835291602001916103ae565b820191906000526020600020905b81548152906001019060200180831161039157829003601f168201915b5050505050905090565b3360009081526001602052604090206006015460ff166103d55750565b33600090815260016020526040812060020180548392906103f79084906109a6565b9091555050336000908152600160205260408120600301805483929061041e9084906109e7565b909155505050565b6000546001600160a01b0316331461043d57600080fd5b6001600160a01b0382166000908152600160209081526040909120825161046c9260079092019184019061061b565b505050565b33600090815260016020526040902060060154610100900460ff1661049557600080fd5b336000908152600160205260409020600401548111156104b457600080fd5b33600090815260016020526040812060040180548392906104d69084906109ff565b9091555050336000908152600160205260408120600501805483929061041e9084906109e7565b3360009081526001602052604090206006015460ff1661051c57600080fd5b6001600160a01b038216600090815260016020526040902060060154610100900460ff1661054957600080fd5b6001600160a01b03821660009081526001602052604090206004015461056f82826109e7565b1161057957600080fd5b336000908152600160205260408120600201805483929061059b908490610a16565b90915550506001600160a01b038216600090815260016020526040812060040180548392906105cb9084906109e7565b90915550505050565b6000336001600160a01b03831614806105f757506000546001600160a01b031633145b1561030f57506001600160a01b031660009081526001602052604090206003015490565b8280546106279061096c565b90600052602060002090601f016020900481019282610649576000855561068f565b82601f1061066257805160ff191683800117855561068f565b8280016001018555821561068f579182015b8281111561068f578251825591602001919060010190610674565b5061069b92915061069f565b5090565b5b8082111561069b57600081556001016106a0565b80356001600160a01b038116811461030f57600080fd5b634e487b7160e01b600052604160045260246000fd5b600082601f8301126106f257600080fd5b813567ffffffffffffffff8082111561070d5761070d6106cb565b604051601f8301601f19908116603f01168101908282118183101715610735576107356106cb565b8160405283815286602085880101111561074e57600080fd5b836020870160208301376000602085830101528094505050505092915050565b8035801515811461030f57600080fd5b600080600080600060a0868803121561079657600080fd5b61079f866106b4565b9450602086013567ffffffffffffffff808211156107bc57600080fd5b6107c889838a016106e1565b955060408801359150808211156107de57600080fd5b506107eb888289016106e1565b9350506107fa6060870161076e565b91506108086080870161076e565b90509295509295909350565b6000806040838503121561082757600080fd5b50508035926020909101359150565b60006020828403121561084857600080fd5b6102c1826106b4565b600060208083528351808285015260005b8181101561087e57858101830151858201604001528201610862565b81811115610890576000604083870101525b50601f01601f1916929092016040019392505050565b6000602082840312156108b857600080fd5b5035919050565b600080604083850312156108d257600080fd5b6108db836106b4565b9150602083013567ffffffffffffffff8111156108f757600080fd5b610903858286016106e1565b9150509250929050565b6000806040838503121561092057600080fd5b610929836106b4565b946020939093013593505050565b634e487b7160e01b600052601160045260246000fd5b600081600019048311821515161561096757610967610937565b500290565b600181811c9082168061098057607f821691505b6020821081036109a057634e487b7160e01b600052602260045260246000fd5b50919050565b600080821280156001600160ff1b03849003851316156109c8576109c8610937565b600160ff1b83900384128116156109e1576109e1610937565b50500190565b600082198211156109fa576109fa610937565b500190565b600082821015610a1157610a11610937565b500390565b60008083128015600160ff1b850184121615610a3457610a34610937565b6001600160ff1b0384018313811615610a4f57610a4f610937565b5050039056fea2646970667358221220c71a53af7a82825c5e84df5f8a666549a905073bf5a24bd8bcead960c618032564736f6c634300080d0033",
  "immutableReferences": {},
  "source": "// SPDX-License-Identifier: GPL-3.0\r\npragma solidity >0.4.0;\r\n\r\ncontract NRG {\r\n\r\n\r\n\r\n    address private administrator;\r\n    function PowerGeneration() public \r\n    {\r\n         administrator = msg.sender;\r\n    }\r\n\r\n    struct User\r\n        {\r\n            string name;\r\n            string useraddr;\r\n            int256 generationPower;\r\n            uint256 totalGenerationPower;\r\n            uint256 usePower;\r\n            uint256 totalUsePower;\r\n            bool generaterights;\r\n            bool userights;\r\n            string information;\r\n        }\r\n    mapping (address=>User) user;\r\n    \r\n    function empower(address addr, string memory _name,string memory _useraddr,bool _generaterights,bool _userights) public \r\n    {\r\n        require(msg.sender==administrator);\r\n        user[addr].name=_name;\r\n        user[addr].useraddr=_useraddr;\r\n        user[addr].generationPower=0;\r\n        user[addr].totalGenerationPower=0;\r\n        user[addr].usePower=0;\r\n        user[addr].totalUsePower=0;\r\n        user[addr].generaterights=_generaterights;\r\n        user[addr].userights=_userights;\r\n        user[addr].information=\"\";\r\n    }\r\n\r\n    function calPrice(uint256 power,uint256 volume) pure public returns (uint c){\r\n        c = power * volume;\r\n    }\r\n\r\n    function minepower(uint256 _value) public \r\n    {\r\n        if(!user[msg.sender].generaterights)\r\n            return;\r\n        user[msg.sender].generationPower+=(int256)(_value);\r\n        user[msg.sender].totalGenerationPower+=_value;\r\n    }\r\n\r\n    function transfer(address _to,uint256 _value) public \r\n    {\r\n        require(user[msg.sender].generaterights);\r\n        require(user[_to].userights);\r\n        require(user[_to].usePower+_value>user[_to].usePower);\r\n        user[msg.sender].generationPower-=(int256)(_value);\r\n        user[_to].usePower+=_value; \r\n    }\r\n\r\n    function powerConsume(uint256 _value) public \r\n    {\r\n        require(user[msg.sender].userights);\r\n        require(user[msg.sender].usePower>=_value);\r\n        user[msg.sender].usePower-=_value;\r\n        user[msg.sender].totalUsePower+=_value;\r\n    }\r\n\r\n    function PowerDispatch(address addr,string memory _info)public {\r\n        require(msg.sender==administrator);\r\n        user[addr].information=_info;\r\n    }\r\n\r\n    function GetUsedOfSelf()  public view  returns( uint256 _value)\r\n    {\r\n        return (user[msg.sender].usePower);\r\n    }\r\n\r\n    function GetTotalUsedOfSomeone( address addr) public view returns(uint256 _value)\r\n    {\r\n        if(msg.sender==addr||msg.sender==administrator)\r\n            return (user[addr].totalUsePower);\r\n    }\r\n\r\n    function GetGeneration() public view returns(int256 _value)\r\n    {    \r\n        return (user[msg.sender].generationPower);\r\n    }\r\n    function GetTotalGeneration(address addr) public view returns(uint256 _value)\r\n    {\r\n        if(msg.sender==addr||msg.sender==administrator)\r\n            return (user[addr].totalGenerationPower);\r\n    }\r\n\r\n    function Getinfomation() public view returns(string memory _info)\r\n    {\r\n        return (user[msg.sender].information); \r\n    }\r\n\r\n}",
  "sourcePath": "D:\\VSCode\\Truffle\\MetaCoin\\contracts\\NRG.sol",
  "compiler": {
    "name": "solc",
    "version": "0.8.13+commit.abaa5c0e.Emscripten.clang"
  },
  "schemaVersion": "3.4.13",
  "updatedAt": "2023-05-03T19:45:27.543Z",
  "networkType": "ethereum",
  "devdoc": {
    "kind": "dev",
    "methods": {},
    "version": 1
  },
  "userdoc": {
    "kind": "user",
    "methods": {},
    "version": 1
  }
}